:100D00001201000200000040D00B000300000102AD
:100D100000010A06000200000040010009023C0038
:100D200001010080320904000006FF0000000705F1
:100D3000010200020007058102000200070582028D
:100D40000002000705860200020007058402000277
:100D5000000705080200020009023C0001010080B2
:100D6000320904000006FF000000070501024000F0
:100D700000070581024000000705820240000007CD
:100D800005860240000007058402400000070508B0
:100D900002400000040309042203540072006500AD
:100DA0006E007A00200045006C006500630074004E
:100DB00072006F006E006900630016035400450066
:100DC0002000550053004200200046005800320029
:0A0DD000080331003000310000007C
:0A165400000102020303040405056F
:10080000E4F558F557F556F555C203C200C202C2C9
:100810000112162C120BAE75B501E4F5B47E0D7FF6
:10082000008E0A8F0B75120D75131275080D750960
:100830001C75100D75115875140D75159490E68082
:10084000E030E70E85080C85090D85100E85110F27
:10085000800C85100C85110D85080E85090FEE544E
:10086000E07002217B755900755A807E0D7F008EE5
:100870005B8F5CC374D89FFF740D9ECF2402CF346E
:1008800000FEE48F548E53F552F551F550F54FF5B7
:100890004EF54DAF54AE53AD52AC51AB50AA4FA92B
:1008A0004EA84DC3120B9D502AE55A2550F582E5FE
:1008B00059354FF58374CDF0E4FAF9F8E550240189
:1008C000F550EA354FF54FE9354EF54EE8354DF523
:1008D0004D80C0E4F550F54FF54EF54DAF54AE5395
:1008E000AD52AC51AB50AA4FA94EA84DC3120B9DAF
:1008F0005037E55C2550F582E55B354FF583E0FF29
:10090000E55A2550F582E559354FF583EFF0E4FAC5
:10091000F9F8E5502401F550EA354FF54FE9354E29
:10092000F54EE8354DF54D80B385590A855A0B745F
:10093000002480FF740D34FFFEC3E5139FF513E51B
:10094000129EF512C3E50D9FF50DE50C9EF50CC347
:10095000E50F9FF50FE50E9EF50EC3E5099FF5091E
:10096000E5089EF508C3E5119FF511E5109EF51009
:10097000C3E5159FF515E5149EF514D2E843D8207C
:1009800090E668E04409F090E65CE0443DF0D2AFC8
:1009900090E680E020E105D20612141890E680E08F
:1009A00054F7F0538EF8C203D2B09020007412F0C6
:1009B000A37403F07A207B027D087F0A7E1E120F4B
:1009C00062902009E0902010F0E4A3F0902008E06D
:1009D00090200EF0E4A3F0902007E090200CF0E4CB
:1009E000A3F0902006E090200AF0E4A3F090200508
:1009F000E0902008F0E4A3F0902004E0902006F0BE
:100A0000E4A3F0902003E0A3F0E4A3F0902003F02F
:100A100090E6A1E020E10690E68D7440F01200809F
:100A20001214CB3001051204B6C2013003EF1216C6
:100A30007550EAC20312158020001690E682E0305D
:100A4000E704E020E1EF90E682E030E604E020E019
:090A5000E412147412167780C43C
:010A5900227A
:1004B60090E6B9E0B40C004002E1459004C725E09F
:1004C60073A19FC142E145C1D4E145E14581DFE128
:1004D60045A19AA195A18BA190120CFE4002E15173
:1004E60090E6BBE024FE602C14604524FD601714E2
:1004F600603024066002A182E50A90E6B3F0E50BBF
:1005060090E6B4F0E151E51290E6B3F0E51390E61B
:10051600B4F0E151E50C90E6B3F0E50D90E6B4F0E9
:10052600E151E50E90E6B3F0E50F90E6B4F0E15147
:1005360090E6BAE0FF1214F6AA06A9077B018B5DC6
:100546008A5E895FEA494B602A90E6BAE0B4030FF7
:100556007C20EC90E6B3F0740090E6B4F0E151AA8A
:100566005EA95FAE02EE90E6B3F0AF01EF90E6B49F
:10057600F0E15190E6A0E04401F0E15190E6A0E000
:100586004401F0E15112161AE15112165EE15112C0
:10059600136CE151120CECE151120FFE4002E151D5
:1005A60090E6B8E0247F602914603924026002C115
:1005B60039A200E433FF25E0FFA202E4334F90E7BF
:1005C60040F0E4A3F090E68AF090E68B7402F0E146
:1005D60051E490E740F0A3F090E68AF090E68B7441
:1005E60002F0E15190E6BCE0547EFF7E00E0D39439
:1005F6008040067C007D0180047C007D00EC4EFE80
:10060600ED4F2454F58274163EF583E493FF33953B
:10061600E0FEEF24A1FFEE34E68F82F583E054017D
:1006260090E740F0E4A3F090E68AF090E68B74023F
:10063600F0E15190E6A0E04401F0E15112166F405E
:1006460002E15190E6B8E024FE601A24026002E15D
:100656005190E6BAE0B40104C200E15190E6A0E090
:100666004401F0E15190E6BAE0705890E6BCE054DF
:100676007EFF7E00E0D3948040067C007D018004EE
:100686007C007D00EC4EFEED4F2454F58274163E40
:10069600F583E493FF3395E0FEEF24A1FFEE34E605
:1006A6008F82F583E054FEF090E6BCE05480FF13A1
:1006B6001313541FFFE0540F2F90E683F0E04420FD
:1006C600F0E15190E6A0E04401F0807F807D1216B3
:1006D60071507890E6B8E024FE60232402706C9096
:1006E600E6BAE0B40104D200806190E6BAE0B40252
:1006F600048058805690E6A0E04401F0804D90E6D4
:10070600BCE0547EFF7E00E0D3948040067C007DF2
:100716000180047C007D00EC4EFEED4F2454F582F2
:1007260074163EF583E493FF3395E0FEEF24A1FFB4
:10073600EE34E68F82F583E04401F0800E800C12E1
:100746001673500790E6A0E04401F090E6A0E0445E
:0207560080F031
:01075800227E
:1007E5008F828E837402F0A3F08F828E83A3A3146D
:0A07F500F08F828E83A3A3A3F022ED
:06129C008D668A678B6875
:1012A200EF25E0FD90E678E020E6F990E678E0446C
:1012B20080F0AF0512163AE566D3942040037566B6
:1012C20020E4F569E569C395665014E5682569F57A
:1012D20082E43567F583E0FF12163A056980E590EE
:0612E200E678E04440F054
:0112E80022E3
:061139008D668A678B68D9
:10113F00E4F569F56AE566C394014066EF25E004BE
:10114F00FD90E678E020E6F990E678E04480F0AF95
:10115F000512163A1216478F6AE566D3941F40039D
:10116F0075661FE4F569E56614FFE569C39F5014C2
:10117F00121647E5682569F582E43567F583EFF0C8
:10118F00056980E290E678E04420F0121647E568A2
:10119F002569F582E43567F583EFF090E678E04452
:0211AF0040F00E
:0111B100221B
:0810B8008D5D8B5E8A5F89608B
:1010C000E4F561F562E55DC39401406CEF25E00451
:1010D000FD90E678E020E6F990E678E04480F0AF15
:1010E0000512163A1216478F62E55DD3941F40032E
:1010F000755D1FE4F561E55D14FFE561C39F501761
:10110000121647AB5EAA5FA960856182758300EF06
:10111000120B7B056180DF90E678E04420F0121628
:1011200047AB5EAA5FA960856182758300EF120BF1
:081130007B90E678E04440F0FA
:011138002294
:0A1228008E668F678D688A698B6AF5
:1012320090E678E020E6F990E678E04480F07FA23C
:1012420012163AE566FF12163AAF67E56712163ACA
:10125200E568D394204003756820E4F56BE56BC321
:1012620095685014E56A256BF582E43569F583E0EB
:10127200FF12163A056B80E590E678E04440F09064
:10128200E678E020E6F990E678E04480F07FA2126A
:09129200163A90E678E030E1ED37
:01129B002230
:0D163A0090E679EFF090E678E030E0F922DC
:0C16470090E679E0FF90E678E030E0F9F2
:011653002274
:060F62008E668F67A905F1
:100F6800E4FDFCE9C39401407490E678E020E6F9DA
:100F780090E678E04480F07FA212163AE566FF1208
:100F8800163AAF67E56712163A90E678E04480F0C3
:100F98007FA312163A121647AC07E9D3941F4002F2
:100FA800791FE4FDE914FFEDC39F5010121647EBBB
:100FB8002DF582E43AF583EFF00D80E890E678E0CD
:100FC8004420F0121647AE05AC02AD03ED2EF582B3
:0D0FD800E43CF583EFF090E678E04440F053
:010FE50022E9
:101521007E80C2B5000000E4FDEDC394085018EFC1
:101531005E6004D2B68002C2B6D2B5000000C2B568
:07154100EEC313FE0D80E272
:011548002280
:10159400C2B5000000E4FFFEEEC394085015D2B5B6
:1015A400000000EF25E0FF30B7010FC2B5000000D6
:0315B4000E80E5C1
:0115B7002211
:040E9F008D678B6868
:100EA30075B571C2B0856C6E856D6F8F721215B892
:100EB300AF677570008F71E571FE7C00E42568F5FE
:100EC30071EC3EF570C2B6000000C2B5000000C26E
:100ED300B47F02121521AF72121521AF67121521CB
:100EE300AF68121521E56F456E6064E56F156F708D
:100EF30002156EAB69AA6AA96B120B50FF1215217A
:100F03007401256BF56BE4356AF56A0571E571705B
:100F1300020570E571457070CC0572D2B400000013
:100F2300C2B6000000C2B51214A01215B8C2B600B2
:100F33000000C2B5000000C2B47F02121521AF72D7
:100F4300121521AF67121521AF681215218096D2B1
:0E0F5300B4000000C2B6000000C2B51214A027
:010F6100226D
:060DDA008F668D678B6837
:100DE00075B571C2B0856C6E856D6FD3E56F94007B
:100DF000E56E94014003756E00AF677570008F71EA
:100E0000E571FE7C00E42568F571EC3EF570C2B634
:100E1000000000C2B5000000C2B47F03121521AF6C
:100E200066121521AF67121521AF68121521E56F03
:100E3000456E605EE56F156F7002156E121594AB0E
:100E400069AA6AA96BEF120B697401256BF56BE453
:100E5000356AF56A0571E57170020570E5714570D6
:100E600070CC0566D2B4000000C2B6000000C2B566
:100E7000C2B6000000C2B5000000C2B47F03121564
:100E800021AF66121521AF67121521AF6812152127
:0E0E9000809CD2B4000000C2B6000000C2B5C3
:010E9E002231
:1015B800C2B6000000C2B5000000C2B47F06121512
:0E15C80021D2B4000000C2B6000000C2B5225D
:1014A0007C01EC30E024C2B6000000C2B5000000B0
:1014B000C2B47F05121521121594AC07D2B40000F6
:0A14C00000C2B6000000C2B580D8DB
:0114CA0022FF
:1015490075B571C2B01215B8C2B6000000C2B500B7
:101559000000C2B47FC7121521D2B4000000C2B680
:06156900000000C2B522E3
:1013A900AC0775B571C2B01215B8C2B6000000C25B
:1013B900B5000000C2B47FD8121521AF041215215F
:1013C900E4FF121521E4121521D2B4000000C2B6BF
:0913D900000000C2B51214A022AC
:1014470075B571C2B6000000C2B5000000C2B47F16
:1014570005121521121594D2B4000000C2B600007F
:0C14670000C2B5EF30E0037F01227F00DF
:011473002256
:1011B20075B571C2B0C2B6000000C2B5000000C26F
:1011C200B48F6EE56ED394404003756E40E56ED3E6
:1011D20094004012120B50FF121521740129F9E4F8
:1011E2003AFA156E80E7856A6EE56ED39440400345
:1011F200756E40E56ED39400401F1215948F6FAB4D
:101202006BAA6CA96DE56F120B697401256DF56D02
:10121200E4356CF56C156E80DAD2B4000000C2B60B
:05122200000000C2B550
:0112270022A4
:100FE600C0E0C083C082D2015391EF90E65D7401E8
:080FF600F0D082D083D0E0327C
:1015EE00C0E0C083C0825391EF90E65D7404F0D0EA
:0615FE0082D083D0E03230
:10160400C0E0C083C0825391EF90E65D7402F0D0D5
:0616140082D083D0E03219
:1013E200C0E0C083C08285100C85110D850D8285F9
:1013F2000C83A37402F085080E85090F850F828580
:101402000E83A37407F05391EF90E65D7410F0D051
:0614120082D083D0E0321D
:1015D600C0E0C083C082D2035391EF90E65D7408E9
:0815E600F0D082D083D0E03286
:10132F00C0E0C083C08290E680E030E72085080CE3
:10133F0085090D850D82850C83A37402F085100E2F
:10134F0085110F850F82850E83A37407F05391EFDC
:0D135F0090E65D7420F0D082D083D0E032A3
:0107FF0032C7
:01167900323E
:01167A00323D
:01167B00323C
:01167C00323B
:01167D00323A
:01167E003239
:01167F003238
:011680003237
:011681003236
:011682003235
:011683003234
:011684003233
:011685003232
:011686003231
:011687003230
:01168800322F
:01168900322E
:01168A00322D
:01168B00322C
:01168C00322B
:01168D00322A
:01168E003229
:01168F003228
:011690003227
:011691003226
:011692003225
:011693003224
:011694003223
:011695003222
:011696003221
:011697003220
:01169800321F
:01169900321E
:01169A00321D
:01169B00321C
:04166B0053D8EF322F
:04166600C104C105F5
:020CFE00D322FF
:10136C0090E680E030E71800000090E6247402F06C
:10137C00000000E490E625F0000000D20580160085
:10138C000000E490E624F000000090E6257440F0A4
:0D139C00000000C20590E6BAE0F519D3226A
:100CEC0090E740E519F0E490E68AF090E68B04F08A
:020CFC00D32201
:08165E0090E6BAE0F518D32272
:10161A0090E740E518F0E490E68AF090E68B04F053
:02162A00D322C9
:020FFE00D322FC
:02166F00D32284
:02167100D32282
:02167300C32290
:1014CB00E5276026308020752C01E52AD394204037
:1014DB0003752A207B007A00792DAD2AAF291210D3
:0B14EB00B8052B75260122E4F52C2229
:10008000755D40C20690E6A1E030E10281A3E4F58F
:100090005EF55FC3E55F9440E55E9400501874C060
:1000A000255FF582E434E7F58374FFF0055FE55FD3
:1000B0007002055E80DD90E780E024BB7002816EF7
:1000C000244E700241A42457B4130050309000D73E
:1000D00025E050020583732146215821A121A52145
:1000E000AC416241304198610E41DE41B561E6614B
:1000F0003661BA61D0812A2108211C81527EE77FB6
:10010000C01207E5D206819D75270190E781E0F5D1
:1001100029A3E0F52AE4F52BD206819D90E7C0E5FE
:100120002BF07AE779C178C17CE77D017B007A000A
:10013000792D7E007F20120B2A8B638A648965E407
:10014000F52BD206819D752201755D01D20690E7DF
:1001500081E090E7C0F0819DE523B40105121447CA
:100160008F23A2B2E433F5257524AA90E680E0300F
:10017000E70575280180037528FF755D08D2067AAA
:10018000E779C078C07CE77D017B007A0079217E29
:10019000007F08120B2A8B638A648965E4F5268147
:1001A0009DD206819D755D03D206819DE4F5219067
:1001B000E6047480F000000090E781E0B40214903F
:1001C000E6187448F000000090E6047402F00000A5
:1001D00000805190E781E0B4041490E6197448F06F
:1001E00000000090E6047404F0000000803690E700
:1001F00081E0B4061490E61A7448F000000090E61E
:10020000047406F0000000801B90E781E0701590F8
:10021000E6047402F00000007404F00000007406AC
:10022000F0000000E490E604F0000000D206819D9A
:1002300090E784E0D3943B4003743BF090E781E087
:10024000FFA3E0FD7AE77985756901756AE7756B4B
:100250008590E784E0756C00F56D90E783E0FB1214
:100260000E9F90E784E0D3944040037440F090E701
:1002700081E0FFA3E0FD7AE779C0756901756AE75F
:10028000756BC090E784E0756C00F56D90E783E0D6
:10029000FB120DDAD206819D121549D206121447BF
:1002A0008F23819D90E781E0FF1213A9D2061214DB
:1002B000478F23819D90E7C07455F090E781E0FF60
:1002C000A3E0F56A7AE779C1756B01756CE7756D26
:1002D000C17B017AE779831211B2D206819D90E742
:1002E00081E0755E00F55FFEA3E07C002400F55F11
:1002F000EC3EF55EA3E0D3942040037420F090E739
:1003000083E0FD7AE77B84AF5FAE5E12122890E750
:1003100081E0755E00F55FFEA3E07C002400F55FE0
:10032000EC3EF55EA3E0FD7AE77BC0AF5FAE5E1208
:100330000F62D206819D90E6A3E090E7C0F090E6C0
:10034000A4E090E7C1F090E6A5E090E7C2F090E667
:10035000A6E090E7C3F090E6ABE090E7C4F090E64B
:10036000ADE090E7C5F090E6AFE090E7C6F090E62C
:10037000B1E090E7C7F090E6ACE090E7C8F090E617
:10038000AEE090E7C9F090E6B0E090E7CAF090E602
:10039000B2E090E7CBF090E6A7E090E7CCF090E6F3
:1003A000A8E090E7CDF090E6A9E090E7CEF090E6E7
:1003B000AAE090E7CFF0D206819D90E781E0F56258
:1003C000A3E0FD7AE77B83AF6212129CD206819D87
:1003D00090E781E0F562A3E0FD7AE77BC0AF6212AF
:1003E0001139D206819D90E781E0F562A3E0FD7AA4
:1003F000E77B84AF6212129CE4F560F561208018FF
:1004000012156F0561E56170020560D39420E56007
:10041000940340E9800280E590E783E0FD7AE77B82
:10042000C0AF62121139D206807390E781E0700686
:10043000C2B0F5278002D2B030B00890E7C0740196
:10044000F08005E490E7C0F090E7C174AAF0D2060E
:10045000804B90E781E07004C2818002D281A2814A
:10046000E43390E7C0F0A374AAF0D206802FE4FF33
:10047000FEC3EF943FEE64809480501F74802FF58C
:100480008274E73EF583E0FD74C02FF58274E73E89
:10049000F583EDF00FEF70010E80D6D20690E68D59
:1004A0007440F030060F90E6A2E020E10890E68F5D
:0504B0007440F0C206DB
:0104B5002224
:02167500D3227E
:02167700D3227C
:100BAE00752201E4F52C90E6007412F090E60B74B9
:100BBE0003F000000090E60174E0F000000074E322
:100BCE00F000000090E61214F000000090E613749E
:100BDE00E0F000000090E61474E2F000000090E6F1
:100BEE001574A0F000000090E6047480F000000080
:100BFE007402F00000007404F00000007406F000AF
:100C0E0000007408F0000000E4F000000090E61808
:100C1E00F090E619F090E61AF090E61BF090E67070
:100C2E0074C0F0000000E490E602F000000090E6D0
:100C3E000374B0F000000090E609743FF00000006D
:100C4E0090E6207402F0000000E490E621F000002F
:100C5E000090E6227402F0000000E490E623F0001B
:100C6E00000090E6247402F0000000E490E625F007
:100C7E0000000090E63004F000000090E63174FFB2
:100C8E00F000000090E6327401F000000090E633B0
:100C9E0074FFF000000090E6347401F00000009044
:100CAE00E63574FFF000000090E6497488F000000D
:100CBE0000F000000090E6187448F000000090E686
:100CCE0019F000000090E61AF000000090E61B7488
:0E0CDE0010F000000075B57175B282C281225F
:0E162C0090E61074A0F090E611F0E4F527228D
:1014740090E682E030E004E020E60B90E682E03083
:10148400E119E030E71590E680E04401F07F147E36
:0C149400001212E990E680E054FEF02205
:1014180030060990E680E0440AF0800790E680E014
:101428004408F07FDC7E051212E990E65D74FFF057
:0F14380090E65FF05391EF90E680E054F7F022DA
:0214F600A90744
:1014F800AE14AF158F828E83A3E064037017AD011D
:1015080019ED7001228F828E83E07C002FFDEC3E66
:08151800FEAF0580DFE4FEFFD9
:0115200022A8
:10156F007400F58690FDA57C05A3E582458370F98F
:01157F002249
:1015800090E682E044C0F090E681F04387010000DD
:041590000000002235
:1012E9008E5D8F5E90E600E054187012E55E240171
:1012F900FFE4355DC313F55DEF13F55E801590E6E8
:1013090000E05418FFBF100BE55E25E0F55EE55DD2
:1013190033F55DE55E155EAE5D7002155D4E6005E7
:0613290012156F80EE2298
:03004300021000A8
:0300530002100098
:10100000020FE600021604000215EE000215D600DB
:101010000213E20002132F000207FF0002167900FC
:1010200002167A0002167B0002167C0002167D0072
:1010300002167E0002167F00021680000216810052
:10104000021682000216790002168300021684003E
:101050000216850002168600021687000216880016
:10106000021689000216790002167900021679002C
:1010700002168A0002168B0002168C0002168D00E2
:1010800002168E0002168F000216900002169100C2
:1010900002169200021693000216940002169500A2
:1010A0000216960002169700021698000216990082
:0810B00002169A0002169B00D3
:030000000207599B
:0C075900787FE4F6D8FD7581720207A0DD
:100A5A00E709F608DFFA8046E709F208DFFA803E7E
:100A6A0088828C83E709F0A3DFFA8032E309F6086B
:100A7A00DFFA8078E309F208DFFA807088828C83D3
:100A8A00E309F0A3DFFA806489828A83E0A3F60887
:100A9A00DFFA805889828A83E0A3F208DFFA804C61
:100AAA0080D280FA80C680D4806980F28033801038
:100ABA0080A680EA809A80A880DA80E280CA8033A1
:100ACA0089828A83ECFAE493A3C8C582C8CCC58319
:100ADA00CCF0A3C8C582C8CCC583CCDFE9DEE780E9
:100AEA000D89828A83E493A3F608DFF9ECFAA9F068
:100AFA00EDFB2289828A83ECFAE0A3C8C582C8CCBE
:100B0A00C583CCF0A3C8C582C8CCC583CCDFEADED6
:100B1A00E880DB89828A83E493A3F208DFF980CC38
:100B2A0088F0EF60010E4E60C388F0ED2402B40431
:100B3A000050B9F582EB2402B4040050AF232345D8
:060B4A008223900AAA7349
:100B5000BB010689828A83E0225002E722BBFE02A3
:090B6000E32289828A83E49322D6
:100B6900BB010689828A83F0225002F722BBFE016B
:020B7900F32265
:100B7B00F8BB010DE58229F582E5833AF583E8F0B0
:100B8B00225006E92582C8F622BBFE05E92582C85C
:020B9B00F22244
:100B9D00EB9FF5F0EA9E42F0E99D42F0E89C45F0AE
:010BAD002225
:10076500020800E493A3F8E493A34003F68001F2A2
:1007750008DFF48029E493A3F85407240CC8C33395
:10078500C4540F4420C8834004F456800146F6DF64
:10079500E4800B0102040810204080901666E47E78
:1007A500019360BCA3FF543F30E509541FFEE49359
:1007B500A360010ECF54C025E060A840B8E493A320
:1007C500FAE493A3F8E493A3C8C582C8CAC583CA4B
:1007D500F0A3C8C582C8CAC583CADFE9DEE780BE03
:01166A00007F
:00000001FF
